{
	"data": {
		"bytecode": {
			"linkReferences": {},
			"object": "60806040526040518060400160405280600581526020017f42756e6e790000000000000000000000000000000000000000000000000000008152505f9081620000499190620002c1565b5034801562000056575f80fd5b50620003a5565b5f81519050919050565b7f4e487b71000000000000000000000000000000000000000000000000000000005f52604160045260245ffd5b7f4e487b71000000000000000000000000000000000000000000000000000000005f52602260045260245ffd5b5f6002820490506001821680620000d957607f821691505b602082108103620000ef57620000ee62000094565b5b50919050565b5f819050815f5260205f209050919050565b5f6020601f8301049050919050565b5f82821b905092915050565b5f60088302620001537fffffffffffffffffffffffffffffffffffffffffffffffffffffffffffffffff8262000116565b6200015f868362000116565b95508019841693508086168417925050509392505050565b5f819050919050565b5f819050919050565b5f620001a9620001a36200019d8462000177565b62000180565b62000177565b9050919050565b5f819050919050565b620001c48362000189565b620001dc620001d382620001b0565b84845462000122565b825550505050565b5f90565b620001f2620001e4565b620001ff818484620001b9565b505050565b5b8181101562000226576200021a5f82620001e8565b60018101905062000205565b5050565b601f82111562000275576200023f81620000f5565b6200024a8462000107565b810160208510156200025a578190505b62000272620002698562000107565b83018262000204565b50505b505050565b5f82821c905092915050565b5f620002975f19846008026200027a565b1980831691505092915050565b5f620002b1838362000286565b9150826002028217905092915050565b620002cc826200005d565b67ffffffffffffffff811115620002e857620002e762000067565b5b620002f48254620000c1565b620003018282856200022a565b5f60209050601f83116001811462000337575f841562000322578287015190505b6200032e8582620002a4565b8655506200039d565b601f1984166200034786620000f5565b5f5b82811015620003705784890151825560018201915060208501945060208101905062000349565b868310156200039057848901516200038c601f89168262000286565b8355505b6001600288020188555050505b505050505050565b6105bf80620003b35f395ff3fe608060405234801561000f575f80fd5b5060043610610055575f3560e01c80630317d5f3146100595780633a7d22bc146100635780634a90be5714610093578063a4ece52c146100b1578063e81d53cf146100bb575b5f80fd5b6100616100d9565b005b61007d600480360381019061007891906103af565b610193565b60405161008a9190610414565b60405180910390f35b61009b6101fa565b6040516100a8919061043c565b60405180910390f35b6100b961020e565b005b6100c36102ed565b6040516100d091906104df565b60405180910390f35b5f808054806100e79061052c565b80601f810361010457835f5260205f2060ff1984168155603f9350505b5060028201835560018101925050506001900381546001161561013457905f5260205f2090602091828204019190065b7f530000000000000000000000000000000000000000000000000000000000000090919091601f036101000a81548160ff021916907f010000000000000000000000000000000000000000000000000000000000000084040217905550565b5f808281546101a19061052c565b81106101b0576101af61055c565b5b8154600116156101cd57905f5260205f2090602091828204019190065b9054901a7f0100000000000000000000000000000000000000000000000000000000000000029050919050565b5f8080546102079061052c565b9050905090565b5f80548061021b9061052c565b8061024d577f4e487b71000000000000000000000000000000000000000000000000000000005f52603160045260245ffd5b601f81115f81146102655760018114610287576102e4565b6001826021036101000a036001830392506002830284821916179350506102e4565b835f5260205f2082602081146102cd57601f6001850316602060018603048301925082546001826020036101000a038181191691508185556002880397505050506102e1565b81545f835560ff1981169050603e81179550505b50505b50818355505050565b5f80546102f99061052c565b80601f01602080910402602001604051908101604052809291908181526020018280546103259061052c565b80156103705780601f1061034757610100808354040283529160200191610370565b820191905f5260205f20905b81548152906001019060200180831161035357829003601f168201915b505050505081565b5f80fd5b5f819050919050565b61038e8161037c565b8114610398575f80fd5b50565b5f813590506103a981610385565b92915050565b5f602082840312156103c4576103c3610378565b5b5f6103d18482850161039b565b91505092915050565b5f7fff0000000000000000000000000000000000000000000000000000000000000082169050919050565b61040e816103da565b82525050565b5f6020820190506104275f830184610405565b92915050565b6104368161037c565b82525050565b5f60208201905061044f5f83018461042d565b92915050565b5f81519050919050565b5f82825260208201905092915050565b5f5b8381101561048c578082015181840152602081019050610471565b5f8484015250505050565b5f601f19601f8301169050919050565b5f6104b182610455565b6104bb818561045f565b93506104cb81856020860161046f565b6104d481610497565b840191505092915050565b5f6020820190508181035f8301526104f781846104a7565b905092915050565b7f4e487b71000000000000000000000000000000000000000000000000000000005f52602260045260245ffd5b5f600282049050600182168061054357607f821691505b602082108103610556576105556104ff565b5b50919050565b7f4e487b71000000000000000000000000000000000000000000000000000000005f52603260045260245ffdfea26469706673582212208c74b341e2e87f4ed12c49bed58cb0bf7155692f632ebdde4aca6bdfd12704aa64736f6c63430008160033",
			"opcodes": "PUSH1 0x80 PUSH1 0x40 MSTORE PUSH1 0x40 MLOAD DUP1 PUSH1 0x40 ADD PUSH1 0x40 MSTORE DUP1 PUSH1 0x5 DUP2 MSTORE PUSH1 0x20 ADD PUSH32 0x42756E6E79000000000000000000000000000000000000000000000000000000 DUP2 MSTORE POP PUSH0 SWAP1 DUP2 PUSH3 0x49 SWAP2 SWAP1 PUSH3 0x2C1 JUMP JUMPDEST POP CALLVALUE DUP1 ISZERO PUSH3 0x56 JUMPI PUSH0 DUP1 REVERT JUMPDEST POP PUSH3 0x3A5 JUMP JUMPDEST PUSH0 DUP2 MLOAD SWAP1 POP SWAP2 SWAP1 POP JUMP JUMPDEST PUSH32 0x4E487B7100000000000000000000000000000000000000000000000000000000 PUSH0 MSTORE PUSH1 0x41 PUSH1 0x4 MSTORE PUSH1 0x24 PUSH0 REVERT JUMPDEST PUSH32 0x4E487B7100000000000000000000000000000000000000000000000000000000 PUSH0 MSTORE PUSH1 0x22 PUSH1 0x4 MSTORE PUSH1 0x24 PUSH0 REVERT JUMPDEST PUSH0 PUSH1 0x2 DUP3 DIV SWAP1 POP PUSH1 0x1 DUP3 AND DUP1 PUSH3 0xD9 JUMPI PUSH1 0x7F DUP3 AND SWAP2 POP JUMPDEST PUSH1 0x20 DUP3 LT DUP2 SUB PUSH3 0xEF JUMPI PUSH3 0xEE PUSH3 0x94 JUMP JUMPDEST JUMPDEST POP SWAP2 SWAP1 POP JUMP JUMPDEST PUSH0 DUP2 SWAP1 POP DUP2 PUSH0 MSTORE PUSH1 0x20 PUSH0 KECCAK256 SWAP1 POP SWAP2 SWAP1 POP JUMP JUMPDEST PUSH0 PUSH1 0x20 PUSH1 0x1F DUP4 ADD DIV SWAP1 POP SWAP2 SWAP1 POP JUMP JUMPDEST PUSH0 DUP3 DUP3 SHL SWAP1 POP SWAP3 SWAP2 POP POP JUMP JUMPDEST PUSH0 PUSH1 0x8 DUP4 MUL PUSH3 0x153 PUSH32 0xFFFFFFFFFFFFFFFFFFFFFFFFFFFFFFFFFFFFFFFFFFFFFFFFFFFFFFFFFFFFFFFF DUP3 PUSH3 0x116 JUMP JUMPDEST PUSH3 0x15F DUP7 DUP4 PUSH3 0x116 JUMP JUMPDEST SWAP6 POP DUP1 NOT DUP5 AND SWAP4 POP DUP1 DUP7 AND DUP5 OR SWAP3 POP POP POP SWAP4 SWAP3 POP POP POP JUMP JUMPDEST PUSH0 DUP2 SWAP1 POP SWAP2 SWAP1 POP JUMP JUMPDEST PUSH0 DUP2 SWAP1 POP SWAP2 SWAP1 POP JUMP JUMPDEST PUSH0 PUSH3 0x1A9 PUSH3 0x1A3 PUSH3 0x19D DUP5 PUSH3 0x177 JUMP JUMPDEST PUSH3 0x180 JUMP JUMPDEST PUSH3 0x177 JUMP JUMPDEST SWAP1 POP SWAP2 SWAP1 POP JUMP JUMPDEST PUSH0 DUP2 SWAP1 POP SWAP2 SWAP1 POP JUMP JUMPDEST PUSH3 0x1C4 DUP4 PUSH3 0x189 JUMP JUMPDEST PUSH3 0x1DC PUSH3 0x1D3 DUP3 PUSH3 0x1B0 JUMP JUMPDEST DUP5 DUP5 SLOAD PUSH3 0x122 JUMP JUMPDEST DUP3 SSTORE POP POP POP POP JUMP JUMPDEST PUSH0 SWAP1 JUMP JUMPDEST PUSH3 0x1F2 PUSH3 0x1E4 JUMP JUMPDEST PUSH3 0x1FF DUP2 DUP5 DUP5 PUSH3 0x1B9 JUMP JUMPDEST POP POP POP JUMP JUMPDEST JUMPDEST DUP2 DUP2 LT ISZERO PUSH3 0x226 JUMPI PUSH3 0x21A PUSH0 DUP3 PUSH3 0x1E8 JUMP JUMPDEST PUSH1 0x1 DUP2 ADD SWAP1 POP PUSH3 0x205 JUMP JUMPDEST POP POP JUMP JUMPDEST PUSH1 0x1F DUP3 GT ISZERO PUSH3 0x275 JUMPI PUSH3 0x23F DUP2 PUSH3 0xF5 JUMP JUMPDEST PUSH3 0x24A DUP5 PUSH3 0x107 JUMP JUMPDEST DUP2 ADD PUSH1 0x20 DUP6 LT ISZERO PUSH3 0x25A JUMPI DUP2 SWAP1 POP JUMPDEST PUSH3 0x272 PUSH3 0x269 DUP6 PUSH3 0x107 JUMP JUMPDEST DUP4 ADD DUP3 PUSH3 0x204 JUMP JUMPDEST POP POP JUMPDEST POP POP POP JUMP JUMPDEST PUSH0 DUP3 DUP3 SHR SWAP1 POP SWAP3 SWAP2 POP POP JUMP JUMPDEST PUSH0 PUSH3 0x297 PUSH0 NOT DUP5 PUSH1 0x8 MUL PUSH3 0x27A JUMP JUMPDEST NOT DUP1 DUP4 AND SWAP2 POP POP SWAP3 SWAP2 POP POP JUMP JUMPDEST PUSH0 PUSH3 0x2B1 DUP4 DUP4 PUSH3 0x286 JUMP JUMPDEST SWAP2 POP DUP3 PUSH1 0x2 MUL DUP3 OR SWAP1 POP SWAP3 SWAP2 POP POP JUMP JUMPDEST PUSH3 0x2CC DUP3 PUSH3 0x5D JUMP JUMPDEST PUSH8 0xFFFFFFFFFFFFFFFF DUP2 GT ISZERO PUSH3 0x2E8 JUMPI PUSH3 0x2E7 PUSH3 0x67 JUMP JUMPDEST JUMPDEST PUSH3 0x2F4 DUP3 SLOAD PUSH3 0xC1 JUMP JUMPDEST PUSH3 0x301 DUP3 DUP3 DUP6 PUSH3 0x22A JUMP JUMPDEST PUSH0 PUSH1 0x20 SWAP1 POP PUSH1 0x1F DUP4 GT PUSH1 0x1 DUP2 EQ PUSH3 0x337 JUMPI PUSH0 DUP5 ISZERO PUSH3 0x322 JUMPI DUP3 DUP8 ADD MLOAD SWAP1 POP JUMPDEST PUSH3 0x32E DUP6 DUP3 PUSH3 0x2A4 JUMP JUMPDEST DUP7 SSTORE POP PUSH3 0x39D JUMP JUMPDEST PUSH1 0x1F NOT DUP5 AND PUSH3 0x347 DUP7 PUSH3 0xF5 JUMP JUMPDEST PUSH0 JUMPDEST DUP3 DUP2 LT ISZERO PUSH3 0x370 JUMPI DUP5 DUP10 ADD MLOAD DUP3 SSTORE PUSH1 0x1 DUP3 ADD SWAP2 POP PUSH1 0x20 DUP6 ADD SWAP5 POP PUSH1 0x20 DUP2 ADD SWAP1 POP PUSH3 0x349 JUMP JUMPDEST DUP7 DUP4 LT ISZERO PUSH3 0x390 JUMPI DUP5 DUP10 ADD MLOAD PUSH3 0x38C PUSH1 0x1F DUP10 AND DUP3 PUSH3 0x286 JUMP JUMPDEST DUP4 SSTORE POP JUMPDEST PUSH1 0x1 PUSH1 0x2 DUP9 MUL ADD DUP9 SSTORE POP POP POP JUMPDEST POP POP POP POP POP POP JUMP JUMPDEST PUSH2 0x5BF DUP1 PUSH3 0x3B3 PUSH0 CODECOPY PUSH0 RETURN INVALID PUSH1 0x80 PUSH1 0x40 MSTORE CALLVALUE DUP1 ISZERO PUSH2 0xF JUMPI PUSH0 DUP1 REVERT JUMPDEST POP PUSH1 0x4 CALLDATASIZE LT PUSH2 0x55 JUMPI PUSH0 CALLDATALOAD PUSH1 0xE0 SHR DUP1 PUSH4 0x317D5F3 EQ PUSH2 0x59 JUMPI DUP1 PUSH4 0x3A7D22BC EQ PUSH2 0x63 JUMPI DUP1 PUSH4 0x4A90BE57 EQ PUSH2 0x93 JUMPI DUP1 PUSH4 0xA4ECE52C EQ PUSH2 0xB1 JUMPI DUP1 PUSH4 0xE81D53CF EQ PUSH2 0xBB JUMPI JUMPDEST PUSH0 DUP1 REVERT JUMPDEST PUSH2 0x61 PUSH2 0xD9 JUMP JUMPDEST STOP JUMPDEST PUSH2 0x7D PUSH1 0x4 DUP1 CALLDATASIZE SUB DUP2 ADD SWAP1 PUSH2 0x78 SWAP2 SWAP1 PUSH2 0x3AF JUMP JUMPDEST PUSH2 0x193 JUMP JUMPDEST PUSH1 0x40 MLOAD PUSH2 0x8A SWAP2 SWAP1 PUSH2 0x414 JUMP JUMPDEST PUSH1 0x40 MLOAD DUP1 SWAP2 SUB SWAP1 RETURN JUMPDEST PUSH2 0x9B PUSH2 0x1FA JUMP JUMPDEST PUSH1 0x40 MLOAD PUSH2 0xA8 SWAP2 SWAP1 PUSH2 0x43C JUMP JUMPDEST PUSH1 0x40 MLOAD DUP1 SWAP2 SUB SWAP1 RETURN JUMPDEST PUSH2 0xB9 PUSH2 0x20E JUMP JUMPDEST STOP JUMPDEST PUSH2 0xC3 PUSH2 0x2ED JUMP JUMPDEST PUSH1 0x40 MLOAD PUSH2 0xD0 SWAP2 SWAP1 PUSH2 0x4DF JUMP JUMPDEST PUSH1 0x40 MLOAD DUP1 SWAP2 SUB SWAP1 RETURN JUMPDEST PUSH0 DUP1 DUP1 SLOAD DUP1 PUSH2 0xE7 SWAP1 PUSH2 0x52C JUMP JUMPDEST DUP1 PUSH1 0x1F DUP2 SUB PUSH2 0x104 JUMPI DUP4 PUSH0 MSTORE PUSH1 0x20 PUSH0 KECCAK256 PUSH1 0xFF NOT DUP5 AND DUP2 SSTORE PUSH1 0x3F SWAP4 POP POP JUMPDEST POP PUSH1 0x2 DUP3 ADD DUP4 SSTORE PUSH1 0x1 DUP2 ADD SWAP3 POP POP POP PUSH1 0x1 SWAP1 SUB DUP2 SLOAD PUSH1 0x1 AND ISZERO PUSH2 0x134 JUMPI SWAP1 PUSH0 MSTORE PUSH1 0x20 PUSH0 KECCAK256 SWAP1 PUSH1 0x20 SWAP2 DUP3 DUP3 DIV ADD SWAP2 SWAP1 MOD JUMPDEST PUSH32 0x5300000000000000000000000000000000000000000000000000000000000000 SWAP1 SWAP2 SWAP1 SWAP2 PUSH1 0x1F SUB PUSH2 0x100 EXP DUP2 SLOAD DUP2 PUSH1 0xFF MUL NOT AND SWAP1 PUSH32 0x100000000000000000000000000000000000000000000000000000000000000 DUP5 DIV MUL OR SWAP1 SSTORE POP JUMP JUMPDEST PUSH0 DUP1 DUP3 DUP2 SLOAD PUSH2 0x1A1 SWAP1 PUSH2 0x52C JUMP JUMPDEST DUP2 LT PUSH2 0x1B0 JUMPI PUSH2 0x1AF PUSH2 0x55C JUMP JUMPDEST JUMPDEST DUP2 SLOAD PUSH1 0x1 AND ISZERO PUSH2 0x1CD JUMPI SWAP1 PUSH0 MSTORE PUSH1 0x20 PUSH0 KECCAK256 SWAP1 PUSH1 0x20 SWAP2 DUP3 DUP3 DIV ADD SWAP2 SWAP1 MOD JUMPDEST SWAP1 SLOAD SWAP1 BYTE PUSH32 0x100000000000000000000000000000000000000000000000000000000000000 MUL SWAP1 POP SWAP2 SWAP1 POP JUMP JUMPDEST PUSH0 DUP1 DUP1 SLOAD PUSH2 0x207 SWAP1 PUSH2 0x52C JUMP JUMPDEST SWAP1 POP SWAP1 POP SWAP1 JUMP JUMPDEST PUSH0 DUP1 SLOAD DUP1 PUSH2 0x21B SWAP1 PUSH2 0x52C JUMP JUMPDEST DUP1 PUSH2 0x24D JUMPI PUSH32 0x4E487B7100000000000000000000000000000000000000000000000000000000 PUSH0 MSTORE PUSH1 0x31 PUSH1 0x4 MSTORE PUSH1 0x24 PUSH0 REVERT JUMPDEST PUSH1 0x1F DUP2 GT PUSH0 DUP2 EQ PUSH2 0x265 JUMPI PUSH1 0x1 DUP2 EQ PUSH2 0x287 JUMPI PUSH2 0x2E4 JUMP JUMPDEST PUSH1 0x1 DUP3 PUSH1 0x21 SUB PUSH2 0x100 EXP SUB PUSH1 0x1 DUP4 SUB SWAP3 POP PUSH1 0x2 DUP4 MUL DUP5 DUP3 NOT AND OR SWAP4 POP POP PUSH2 0x2E4 JUMP JUMPDEST DUP4 PUSH0 MSTORE PUSH1 0x20 PUSH0 KECCAK256 DUP3 PUSH1 0x20 DUP2 EQ PUSH2 0x2CD JUMPI PUSH1 0x1F PUSH1 0x1 DUP6 SUB AND PUSH1 0x20 PUSH1 0x1 DUP7 SUB DIV DUP4 ADD SWAP3 POP DUP3 SLOAD PUSH1 0x1 DUP3 PUSH1 0x20 SUB PUSH2 0x100 EXP SUB DUP2 DUP2 NOT AND SWAP2 POP DUP2 DUP6 SSTORE PUSH1 0x2 DUP9 SUB SWAP8 POP POP POP POP PUSH2 0x2E1 JUMP JUMPDEST DUP2 SLOAD PUSH0 DUP4 SSTORE PUSH1 0xFF NOT DUP2 AND SWAP1 POP PUSH1 0x3E DUP2 OR SWAP6 POP POP JUMPDEST POP POP JUMPDEST POP DUP2 DUP4 SSTORE POP POP POP JUMP JUMPDEST PUSH0 DUP1 SLOAD PUSH2 0x2F9 SWAP1 PUSH2 0x52C JUMP JUMPDEST DUP1 PUSH1 0x1F ADD PUSH1 0x20 DUP1 SWAP2 DIV MUL PUSH1 0x20 ADD PUSH1 0x40 MLOAD SWAP1 DUP2 ADD PUSH1 0x40 MSTORE DUP1 SWAP3 SWAP2 SWAP1 DUP2 DUP2 MSTORE PUSH1 0x20 ADD DUP3 DUP1 SLOAD PUSH2 0x325 SWAP1 PUSH2 0x52C JUMP JUMPDEST DUP1 ISZERO PUSH2 0x370 JUMPI DUP1 PUSH1 0x1F LT PUSH2 0x347 JUMPI PUSH2 0x100 DUP1 DUP4 SLOAD DIV MUL DUP4 MSTORE SWAP2 PUSH1 0x20 ADD SWAP2 PUSH2 0x370 JUMP JUMPDEST DUP3 ADD SWAP2 SWAP1 PUSH0 MSTORE PUSH1 0x20 PUSH0 KECCAK256 SWAP1 JUMPDEST DUP2 SLOAD DUP2 MSTORE SWAP1 PUSH1 0x1 ADD SWAP1 PUSH1 0x20 ADD DUP1 DUP4 GT PUSH2 0x353 JUMPI DUP3 SWAP1 SUB PUSH1 0x1F AND DUP3 ADD SWAP2 JUMPDEST POP POP POP POP POP DUP2 JUMP JUMPDEST PUSH0 DUP1 REVERT JUMPDEST PUSH0 DUP2 SWAP1 POP SWAP2 SWAP1 POP JUMP JUMPDEST PUSH2 0x38E DUP2 PUSH2 0x37C JUMP JUMPDEST DUP2 EQ PUSH2 0x398 JUMPI PUSH0 DUP1 REVERT JUMPDEST POP JUMP JUMPDEST PUSH0 DUP2 CALLDATALOAD SWAP1 POP PUSH2 0x3A9 DUP2 PUSH2 0x385 JUMP JUMPDEST SWAP3 SWAP2 POP POP JUMP JUMPDEST PUSH0 PUSH1 0x20 DUP3 DUP5 SUB SLT ISZERO PUSH2 0x3C4 JUMPI PUSH2 0x3C3 PUSH2 0x378 JUMP JUMPDEST JUMPDEST PUSH0 PUSH2 0x3D1 DUP5 DUP3 DUP6 ADD PUSH2 0x39B JUMP JUMPDEST SWAP2 POP POP SWAP3 SWAP2 POP POP JUMP JUMPDEST PUSH0 PUSH32 0xFF00000000000000000000000000000000000000000000000000000000000000 DUP3 AND SWAP1 POP SWAP2 SWAP1 POP JUMP JUMPDEST PUSH2 0x40E DUP2 PUSH2 0x3DA JUMP JUMPDEST DUP3 MSTORE POP POP JUMP JUMPDEST PUSH0 PUSH1 0x20 DUP3 ADD SWAP1 POP PUSH2 0x427 PUSH0 DUP4 ADD DUP5 PUSH2 0x405 JUMP JUMPDEST SWAP3 SWAP2 POP POP JUMP JUMPDEST PUSH2 0x436 DUP2 PUSH2 0x37C JUMP JUMPDEST DUP3 MSTORE POP POP JUMP JUMPDEST PUSH0 PUSH1 0x20 DUP3 ADD SWAP1 POP PUSH2 0x44F PUSH0 DUP4 ADD DUP5 PUSH2 0x42D JUMP JUMPDEST SWAP3 SWAP2 POP POP JUMP JUMPDEST PUSH0 DUP2 MLOAD SWAP1 POP SWAP2 SWAP1 POP JUMP JUMPDEST PUSH0 DUP3 DUP3 MSTORE PUSH1 0x20 DUP3 ADD SWAP1 POP SWAP3 SWAP2 POP POP JUMP JUMPDEST PUSH0 JUMPDEST DUP4 DUP2 LT ISZERO PUSH2 0x48C JUMPI DUP1 DUP3 ADD MLOAD DUP2 DUP5 ADD MSTORE PUSH1 0x20 DUP2 ADD SWAP1 POP PUSH2 0x471 JUMP JUMPDEST PUSH0 DUP5 DUP5 ADD MSTORE POP POP POP POP JUMP JUMPDEST PUSH0 PUSH1 0x1F NOT PUSH1 0x1F DUP4 ADD AND SWAP1 POP SWAP2 SWAP1 POP JUMP JUMPDEST PUSH0 PUSH2 0x4B1 DUP3 PUSH2 0x455 JUMP JUMPDEST PUSH2 0x4BB DUP2 DUP6 PUSH2 0x45F JUMP JUMPDEST SWAP4 POP PUSH2 0x4CB DUP2 DUP6 PUSH1 0x20 DUP7 ADD PUSH2 0x46F JUMP JUMPDEST PUSH2 0x4D4 DUP2 PUSH2 0x497 JUMP JUMPDEST DUP5 ADD SWAP2 POP POP SWAP3 SWAP2 POP POP JUMP JUMPDEST PUSH0 PUSH1 0x20 DUP3 ADD SWAP1 POP DUP2 DUP2 SUB PUSH0 DUP4 ADD MSTORE PUSH2 0x4F7 DUP2 DUP5 PUSH2 0x4A7 JUMP JUMPDEST SWAP1 POP SWAP3 SWAP2 POP POP JUMP JUMPDEST PUSH32 0x4E487B7100000000000000000000000000000000000000000000000000000000 PUSH0 MSTORE PUSH1 0x22 PUSH1 0x4 MSTORE PUSH1 0x24 PUSH0 REVERT JUMPDEST PUSH0 PUSH1 0x2 DUP3 DIV SWAP1 POP PUSH1 0x1 DUP3 AND DUP1 PUSH2 0x543 JUMPI PUSH1 0x7F DUP3 AND SWAP2 POP JUMPDEST PUSH1 0x20 DUP3 LT DUP2 SUB PUSH2 0x556 JUMPI PUSH2 0x555 PUSH2 0x4FF JUMP JUMPDEST JUMPDEST POP SWAP2 SWAP1 POP JUMP JUMPDEST PUSH32 0x4E487B7100000000000000000000000000000000000000000000000000000000 PUSH0 MSTORE PUSH1 0x32 PUSH1 0x4 MSTORE PUSH1 0x24 PUSH0 REVERT INVALID LOG2 PUSH5 0x6970667358 0x22 SLT KECCAK256 DUP13 PUSH21 0xB341E2E87F4ED12C49BED58CB0BF7155692F632EBD 0xDE 0x4A 0xCA PUSH12 0xDFD12704AA64736F6C634300 ADDMOD AND STOP CALLER "
		},
		"gasEstimates": {
			"creation": {
				"codeDepositCost": "294200",
				"executionCost": "infinite",
				"totalCost": "infinite"
			},
			"external": {
				"arr()": "infinite",
				"getElement(uint256)": "7175",
				"getLen()": "2586",
				"pop()": "50611",
				"pushElement()": "74787"
			}
		},
		"methodIdentifiers": {
			"arr()": "e81d53cf",
			"getElement(uint256)": "3a7d22bc",
			"getLen()": "4a90be57",
			"pop()": "a4ece52c",
			"pushElement()": "0317d5f3"
		}
	},
	"abi": [
		{
			"inputs": [],
			"name": "arr",
			"outputs": [
				{
					"internalType": "bytes",
					"name": "",
					"type": "bytes"
				}
			],
			"stateMutability": "view",
			"type": "function"
		},
		{
			"inputs": [
				{
					"internalType": "uint256",
					"name": "i",
					"type": "uint256"
				}
			],
			"name": "getElement",
			"outputs": [
				{
					"internalType": "bytes1",
					"name": "",
					"type": "bytes1"
				}
			],
			"stateMutability": "view",
			"type": "function"
		},
		{
			"inputs": [],
			"name": "getLen",
			"outputs": [
				{
					"internalType": "uint256",
					"name": "",
					"type": "uint256"
				}
			],
			"stateMutability": "view",
			"type": "function"
		},
		{
			"inputs": [],
			"name": "pop",
			"outputs": [],
			"stateMutability": "nonpayable",
			"type": "function"
		},
		{
			"inputs": [],
			"name": "pushElement",
			"outputs": [],
			"stateMutability": "nonpayable",
			"type": "function"
		}
	]
}